{
  "_format": "hh-sol-artifact-1",
  "contractName": "StakingContract",
  "sourceName": "contracts/StakingContract.sol",
  "abi": [
    {
      "inputs": [],
      "stateMutability": "nonpayable",
      "type": "constructor"
    },
    {
      "anonymous": false,
      "inputs": [
        {
          "indexed": true,
          "internalType": "address",
          "name": "owner",
          "type": "address"
        },
        {
          "indexed": true,
          "internalType": "address",
          "name": "spender",
          "type": "address"
        },
        {
          "indexed": false,
          "internalType": "uint256",
          "name": "value",
          "type": "uint256"
        }
      ],
      "name": "Approval",
      "type": "event"
    },
    {
      "anonymous": false,
      "inputs": [
        {
          "indexed": true,
          "internalType": "address",
          "name": "from",
          "type": "address"
        },
        {
          "indexed": true,
          "internalType": "address",
          "name": "to",
          "type": "address"
        },
        {
          "indexed": false,
          "internalType": "uint256",
          "name": "value",
          "type": "uint256"
        }
      ],
      "name": "Transfer",
      "type": "event"
    },
    {
      "inputs": [
        {
          "internalType": "address",
          "name": "owner",
          "type": "address"
        },
        {
          "internalType": "address",
          "name": "spender",
          "type": "address"
        }
      ],
      "name": "allowance",
      "outputs": [
        {
          "internalType": "uint256",
          "name": "",
          "type": "uint256"
        }
      ],
      "stateMutability": "view",
      "type": "function"
    },
    {
      "inputs": [
        {
          "internalType": "address",
          "name": "spender",
          "type": "address"
        },
        {
          "internalType": "uint256",
          "name": "amount",
          "type": "uint256"
        }
      ],
      "name": "approve",
      "outputs": [
        {
          "internalType": "bool",
          "name": "",
          "type": "bool"
        }
      ],
      "stateMutability": "nonpayable",
      "type": "function"
    },
    {
      "inputs": [
        {
          "internalType": "address",
          "name": "account",
          "type": "address"
        }
      ],
      "name": "balanceOf",
      "outputs": [
        {
          "internalType": "uint256",
          "name": "",
          "type": "uint256"
        }
      ],
      "stateMutability": "view",
      "type": "function"
    },
    {
      "inputs": [],
      "name": "decimals",
      "outputs": [
        {
          "internalType": "uint8",
          "name": "",
          "type": "uint8"
        }
      ],
      "stateMutability": "view",
      "type": "function"
    },
    {
      "inputs": [
        {
          "internalType": "address",
          "name": "spender",
          "type": "address"
        },
        {
          "internalType": "uint256",
          "name": "subtractedValue",
          "type": "uint256"
        }
      ],
      "name": "decreaseAllowance",
      "outputs": [
        {
          "internalType": "bool",
          "name": "",
          "type": "bool"
        }
      ],
      "stateMutability": "nonpayable",
      "type": "function"
    },
    {
      "inputs": [
        {
          "internalType": "address",
          "name": "spender",
          "type": "address"
        },
        {
          "internalType": "uint256",
          "name": "addedValue",
          "type": "uint256"
        }
      ],
      "name": "increaseAllowance",
      "outputs": [
        {
          "internalType": "bool",
          "name": "",
          "type": "bool"
        }
      ],
      "stateMutability": "nonpayable",
      "type": "function"
    },
    {
      "inputs": [],
      "name": "name",
      "outputs": [
        {
          "internalType": "string",
          "name": "",
          "type": "string"
        }
      ],
      "stateMutability": "view",
      "type": "function"
    },
    {
      "inputs": [
        {
          "internalType": "uint256",
          "name": "amount",
          "type": "uint256"
        }
      ],
      "name": "stake",
      "outputs": [],
      "stateMutability": "nonpayable",
      "type": "function"
    },
    {
      "inputs": [
        {
          "internalType": "address",
          "name": "",
          "type": "address"
        }
      ],
      "name": "stakedAmount",
      "outputs": [
        {
          "internalType": "uint256",
          "name": "",
          "type": "uint256"
        }
      ],
      "stateMutability": "view",
      "type": "function"
    },
    {
      "inputs": [],
      "name": "symbol",
      "outputs": [
        {
          "internalType": "string",
          "name": "",
          "type": "string"
        }
      ],
      "stateMutability": "view",
      "type": "function"
    },
    {
      "inputs": [],
      "name": "totalStaked",
      "outputs": [
        {
          "internalType": "uint256",
          "name": "",
          "type": "uint256"
        }
      ],
      "stateMutability": "view",
      "type": "function"
    },
    {
      "inputs": [],
      "name": "totalSupply",
      "outputs": [
        {
          "internalType": "uint256",
          "name": "",
          "type": "uint256"
        }
      ],
      "stateMutability": "view",
      "type": "function"
    },
    {
      "inputs": [
        {
          "internalType": "address",
          "name": "to",
          "type": "address"
        },
        {
          "internalType": "uint256",
          "name": "amount",
          "type": "uint256"
        }
      ],
      "name": "transfer",
      "outputs": [
        {
          "internalType": "bool",
          "name": "",
          "type": "bool"
        }
      ],
      "stateMutability": "nonpayable",
      "type": "function"
    },
    {
      "inputs": [
        {
          "internalType": "address",
          "name": "from",
          "type": "address"
        },
        {
          "internalType": "address",
          "name": "to",
          "type": "address"
        },
        {
          "internalType": "uint256",
          "name": "amount",
          "type": "uint256"
        }
      ],
      "name": "transferFrom",
      "outputs": [
        {
          "internalType": "bool",
          "name": "",
          "type": "bool"
        }
      ],
      "stateMutability": "nonpayable",
      "type": "function"
    },
    {
      "inputs": [
        {
          "internalType": "uint256",
          "name": "amount",
          "type": "uint256"
        }
      ],
      "name": "unStake",
      "outputs": [],
      "stateMutability": "nonpayable",
      "type": "function"
    }
  ],
  "bytecode": "0x60806040523480156200001157600080fd5b506040518060400160405280600781526020017f4d79546f6b656e000000000000000000000000000000000000000000000000008152506040518060400160405280600381526020017f4d544b00000000000000000000000000000000000000000000000000000000008152508160039080519060200190620000969291906200027b565b508060049080519060200190620000af9291906200027b565b505050620000f433620000c7620000fa60201b60201c565b60ff16600a620000d89190620004b8565b620f4240620000e8919062000509565b6200010360201b60201c565b620006dd565b60006012905090565b600073ffffffffffffffffffffffffffffffffffffffff168273ffffffffffffffffffffffffffffffffffffffff16141562000176576040517f08c379a00000000000000000000000000000000000000000000000000000000081526004016200016d90620005cb565b60405180910390fd5b6200018a600083836200027160201b60201c565b80600260008282546200019e9190620005ed565b92505081905550806000808473ffffffffffffffffffffffffffffffffffffffff1673ffffffffffffffffffffffffffffffffffffffff168152602001908152602001600020600082825401925050819055508173ffffffffffffffffffffffffffffffffffffffff16600073ffffffffffffffffffffffffffffffffffffffff167fddf252ad1be2c89b69c2b068fc378daa952ba7f163c4a11628f55a4df523b3ef836040516200025191906200065b565b60405180910390a36200026d600083836200027660201b60201c565b5050565b505050565b505050565b8280546200028990620006a7565b90600052602060002090601f016020900481019282620002ad5760008555620002f9565b82601f10620002c857805160ff1916838001178555620002f9565b82800160010185558215620002f9579182015b82811115620002f8578251825591602001919060010190620002db565b5b5090506200030891906200030c565b5090565b5b80821115620003275760008160009055506001016200030d565b5090565b7f4e487b7100000000000000000000000000000000000000000000000000000000600052601160045260246000fd5b60008160011c9050919050565b6000808291508390505b6001851115620003b9578086048111156200039157620003906200032b565b5b6001851615620003a15780820291505b8081029050620003b1856200035a565b945062000371565b94509492505050565b600082620003d45760019050620004a7565b81620003e45760009050620004a7565b8160018114620003fd576002811462000408576200043e565b6001915050620004a7565b60ff8411156200041d576200041c6200032b565b5b8360020a9150848211156200043757620004366200032b565b5b50620004a7565b5060208310610133831016604e8410600b8410161715620004785782820a9050838111156200047257620004716200032b565b5b620004a7565b62000487848484600162000367565b92509050818404811115620004a157620004a06200032b565b5b81810290505b9392505050565b6000819050919050565b6000620004c582620004ae565b9150620004d283620004ae565b9250620005017fffffffffffffffffffffffffffffffffffffffffffffffffffffffffffffffff8484620003c2565b905092915050565b60006200051682620004ae565b91506200052383620004ae565b9250817fffffffffffffffffffffffffffffffffffffffffffffffffffffffffffffffff04831182151516156200055f576200055e6200032b565b5b828202905092915050565b600082825260208201905092915050565b7f45524332303a206d696e7420746f20746865207a65726f206164647265737300600082015250565b6000620005b3601f836200056a565b9150620005c0826200057b565b602082019050919050565b60006020820190508181036000830152620005e681620005a4565b9050919050565b6000620005fa82620004ae565b91506200060783620004ae565b9250827fffffffffffffffffffffffffffffffffffffffffffffffffffffffffffffffff038211156200063f576200063e6200032b565b5b828201905092915050565b6200065581620004ae565b82525050565b60006020820190506200067260008301846200064a565b92915050565b7f4e487b7100000000000000000000000000000000000000000000000000000000600052602260045260246000fd5b60006002820490506001821680620006c057607f821691505b60208210811415620006d757620006d662000678565b5b50919050565b6116e080620006ed6000396000f3fe608060405234801561001057600080fd5b50600436106100f55760003560e01c806370a0823111610097578063a694fc3a11610066578063a694fc3a1461029c578063a9059cbb146102b8578063dd62ed3e146102e8578063f993185514610318576100f5565b806370a0823114610200578063817b1cd21461023057806395d89b411461024e578063a457c2d71461026c576100f5565b806323b872dd116100d357806323b872dd14610166578063313ce5671461019657806339509351146101b45780635d3eea91146101e4576100f5565b806306fdde03146100fa578063095ea7b31461011857806318160ddd14610148575b600080fd5b610102610348565b60405161010f9190610df5565b60405180910390f35b610132600480360381019061012d9190610eb0565b6103da565b60405161013f9190610f0b565b60405180910390f35b6101506103fd565b60405161015d9190610f35565b60405180910390f35b610180600480360381019061017b9190610f50565b610407565b60405161018d9190610f0b565b60405180910390f35b61019e610436565b6040516101ab9190610fbf565b60405180910390f35b6101ce60048036038101906101c99190610eb0565b61043f565b6040516101db9190610f0b565b60405180910390f35b6101fe60048036038101906101f99190610fda565b610476565b005b61021a60048036038101906102159190611007565b6105ad565b6040516102279190610f35565b60405180910390f35b6102386105f5565b6040516102459190610f35565b60405180910390f35b6102566105fb565b6040516102639190610df5565b60405180910390f35b61028660048036038101906102819190610eb0565b61068d565b6040516102939190610f0b565b60405180910390f35b6102b660048036038101906102b19190610fda565b610704565b005b6102d260048036038101906102cd9190610eb0565b6107b9565b6040516102df9190610f0b565b60405180910390f35b61030260048036038101906102fd9190611034565b6107dc565b60405161030f9190610f35565b60405180910390f35b610332600480360381019061032d9190611007565b610863565b60405161033f9190610f35565b60405180910390f35b606060038054610357906110a3565b80601f0160208091040260200160405190810160405280929190818152602001828054610383906110a3565b80156103d05780601f106103a5576101008083540402835291602001916103d0565b820191906000526020600020905b8154815290600101906020018083116103b357829003601f168201915b5050505050905090565b6000806103e561087b565b90506103f2818585610883565b600191505092915050565b6000600254905090565b60008061041261087b565b905061041f858285610a4e565b61042a858585610ada565b60019150509392505050565b60006012905090565b60008061044a61087b565b905061046b81858561045c85896107dc565b6104669190611104565b610883565b600191505092915050565b600081116104b9576040517f08c379a00000000000000000000000000000000000000000000000000000000081526004016104b0906111a6565b60405180910390fd5b80600560003373ffffffffffffffffffffffffffffffffffffffff1673ffffffffffffffffffffffffffffffffffffffff16815260200190815260200160002054101561053b576040517f08c379a000000000000000000000000000000000000000000000000000000000815260040161053290611212565b60405180910390fd5b80600560003373ffffffffffffffffffffffffffffffffffffffff1673ffffffffffffffffffffffffffffffffffffffff168152602001908152602001600020600082825461058a9190611232565b9250508190555080600660008282546105a39190611232565b9250508190555050565b60008060008373ffffffffffffffffffffffffffffffffffffffff1673ffffffffffffffffffffffffffffffffffffffff168152602001908152602001600020549050919050565b60065481565b60606004805461060a906110a3565b80601f0160208091040260200160405190810160405280929190818152602001828054610636906110a3565b80156106835780601f1061065857610100808354040283529160200191610683565b820191906000526020600020905b81548152906001019060200180831161066657829003601f168201915b5050505050905090565b60008061069861087b565b905060006106a682866107dc565b9050838110156106eb576040517f08c379a00000000000000000000000000000000000000000000000000000000081526004016106e2906112d8565b60405180910390fd5b6106f88286868403610883565b60019250505092915050565b60008111610747576040517f08c379a000000000000000000000000000000000000000000000000000000000815260040161073e90611344565b60405180910390fd5b80600560003373ffffffffffffffffffffffffffffffffffffffff1673ffffffffffffffffffffffffffffffffffffffff16815260200190815260200160002060008282546107969190611104565b9250508190555080600660008282546107af9190611104565b9250508190555050565b6000806107c461087b565b90506107d1818585610ada565b600191505092915050565b6000600160008473ffffffffffffffffffffffffffffffffffffffff1673ffffffffffffffffffffffffffffffffffffffff16815260200190815260200160002060008373ffffffffffffffffffffffffffffffffffffffff1673ffffffffffffffffffffffffffffffffffffffff16815260200190815260200160002054905092915050565b60056020528060005260406000206000915090505481565b600033905090565b600073ffffffffffffffffffffffffffffffffffffffff168373ffffffffffffffffffffffffffffffffffffffff1614156108f3576040517f08c379a00000000000000000000000000000000000000000000000000000000081526004016108ea906113d6565b60405180910390fd5b600073ffffffffffffffffffffffffffffffffffffffff168273ffffffffffffffffffffffffffffffffffffffff161415610963576040517f08c379a000000000000000000000000000000000000000000000000000000000815260040161095a90611468565b60405180910390fd5b80600160008573ffffffffffffffffffffffffffffffffffffffff1673ffffffffffffffffffffffffffffffffffffffff16815260200190815260200160002060008473ffffffffffffffffffffffffffffffffffffffff1673ffffffffffffffffffffffffffffffffffffffff168152602001908152602001600020819055508173ffffffffffffffffffffffffffffffffffffffff168373ffffffffffffffffffffffffffffffffffffffff167f8c5be1e5ebec7d5bd14f71427d1e84f3dd0314c0f7b2291e5b200ac8c7c3b92583604051610a419190610f35565b60405180910390a3505050565b6000610a5a84846107dc565b90507fffffffffffffffffffffffffffffffffffffffffffffffffffffffffffffffff8114610ad45781811015610ac6576040517f08c379a0000000000000000000000000000000000000000000000000000000008152600401610abd906114d4565b60405180910390fd5b610ad38484848403610883565b5b50505050565b600073ffffffffffffffffffffffffffffffffffffffff168373ffffffffffffffffffffffffffffffffffffffff161415610b4a576040517f08c379a0000000000000000000000000000000000000000000000000000000008152600401610b4190611566565b60405180910390fd5b600073ffffffffffffffffffffffffffffffffffffffff168273ffffffffffffffffffffffffffffffffffffffff161415610bba576040517f08c379a0000000000000000000000000000000000000000000000000000000008152600401610bb1906115f8565b60405180910390fd5b610bc5838383610d52565b60008060008573ffffffffffffffffffffffffffffffffffffffff1673ffffffffffffffffffffffffffffffffffffffff16815260200190815260200160002054905081811015610c4b576040517f08c379a0000000000000000000000000000000000000000000000000000000008152600401610c429061168a565b60405180910390fd5b8181036000808673ffffffffffffffffffffffffffffffffffffffff1673ffffffffffffffffffffffffffffffffffffffff16815260200190815260200160002081905550816000808573ffffffffffffffffffffffffffffffffffffffff1673ffffffffffffffffffffffffffffffffffffffff168152602001908152602001600020600082825401925050819055508273ffffffffffffffffffffffffffffffffffffffff168473ffffffffffffffffffffffffffffffffffffffff167fddf252ad1be2c89b69c2b068fc378daa952ba7f163c4a11628f55a4df523b3ef84604051610d399190610f35565b60405180910390a3610d4c848484610d57565b50505050565b505050565b505050565b600081519050919050565b600082825260208201905092915050565b60005b83811015610d96578082015181840152602081019050610d7b565b83811115610da5576000848401525b50505050565b6000601f19601f8301169050919050565b6000610dc782610d5c565b610dd18185610d67565b9350610de1818560208601610d78565b610dea81610dab565b840191505092915050565b60006020820190508181036000830152610e0f8184610dbc565b905092915050565b600080fd5b600073ffffffffffffffffffffffffffffffffffffffff82169050919050565b6000610e4782610e1c565b9050919050565b610e5781610e3c565b8114610e6257600080fd5b50565b600081359050610e7481610e4e565b92915050565b6000819050919050565b610e8d81610e7a565b8114610e9857600080fd5b50565b600081359050610eaa81610e84565b92915050565b60008060408385031215610ec757610ec6610e17565b5b6000610ed585828601610e65565b9250506020610ee685828601610e9b565b9150509250929050565b60008115159050919050565b610f0581610ef0565b82525050565b6000602082019050610f206000830184610efc565b92915050565b610f2f81610e7a565b82525050565b6000602082019050610f4a6000830184610f26565b92915050565b600080600060608486031215610f6957610f68610e17565b5b6000610f7786828701610e65565b9350506020610f8886828701610e65565b9250506040610f9986828701610e9b565b9150509250925092565b600060ff82169050919050565b610fb981610fa3565b82525050565b6000602082019050610fd46000830184610fb0565b92915050565b600060208284031215610ff057610fef610e17565b5b6000610ffe84828501610e9b565b91505092915050565b60006020828403121561101d5761101c610e17565b5b600061102b84828501610e65565b91505092915050565b6000806040838503121561104b5761104a610e17565b5b600061105985828601610e65565b925050602061106a85828601610e65565b9150509250929050565b7f4e487b7100000000000000000000000000000000000000000000000000000000600052602260045260246000fd5b600060028204905060018216806110bb57607f821691505b602082108114156110cf576110ce611074565b5b50919050565b7f4e487b7100000000000000000000000000000000000000000000000000000000600052601160045260246000fd5b600061110f82610e7a565b915061111a83610e7a565b9250827fffffffffffffffffffffffffffffffffffffffffffffffffffffffffffffffff0382111561114f5761114e6110d5565b5b828201905092915050565b7f756e7374616b652073686f756c64206265206d6f7265207468616e2030000000600082015250565b6000611190601d83610d67565b915061119b8261115a565b602082019050919050565b600060208201905081810360008301526111bf81611183565b9050919050565b7f756e73756666696369656e7420616d6f756e74207374616b6500000000000000600082015250565b60006111fc601983610d67565b9150611207826111c6565b602082019050919050565b6000602082019050818103600083015261122b816111ef565b9050919050565b600061123d82610e7a565b915061124883610e7a565b92508282101561125b5761125a6110d5565b5b828203905092915050565b7f45524332303a2064656372656173656420616c6c6f77616e63652062656c6f7760008201527f207a65726f000000000000000000000000000000000000000000000000000000602082015250565b60006112c2602583610d67565b91506112cd82611266565b604082019050919050565b600060208201905081810360008301526112f1816112b5565b9050919050565b7f7374616b652073686f756c64206265206d6f7265207468616e20300000000000600082015250565b600061132e601b83610d67565b9150611339826112f8565b602082019050919050565b6000602082019050818103600083015261135d81611321565b9050919050565b7f45524332303a20617070726f76652066726f6d20746865207a65726f2061646460008201527f7265737300000000000000000000000000000000000000000000000000000000602082015250565b60006113c0602483610d67565b91506113cb82611364565b604082019050919050565b600060208201905081810360008301526113ef816113b3565b9050919050565b7f45524332303a20617070726f766520746f20746865207a65726f20616464726560008201527f7373000000000000000000000000000000000000000000000000000000000000602082015250565b6000611452602283610d67565b915061145d826113f6565b604082019050919050565b6000602082019050818103600083015261148181611445565b9050919050565b7f45524332303a20696e73756666696369656e7420616c6c6f77616e6365000000600082015250565b60006114be601d83610d67565b91506114c982611488565b602082019050919050565b600060208201905081810360008301526114ed816114b1565b9050919050565b7f45524332303a207472616e736665722066726f6d20746865207a65726f20616460008201527f6472657373000000000000000000000000000000000000000000000000000000602082015250565b6000611550602583610d67565b915061155b826114f4565b604082019050919050565b6000602082019050818103600083015261157f81611543565b9050919050565b7f45524332303a207472616e7366657220746f20746865207a65726f206164647260008201527f6573730000000000000000000000000000000000000000000000000000000000602082015250565b60006115e2602383610d67565b91506115ed82611586565b604082019050919050565b60006020820190508181036000830152611611816115d5565b9050919050565b7f45524332303a207472616e7366657220616d6f756e742065786365656473206260008201527f616c616e63650000000000000000000000000000000000000000000000000000602082015250565b6000611674602683610d67565b915061167f82611618565b604082019050919050565b600060208201905081810360008301526116a381611667565b905091905056fea264697066735822122028e068d598459c96150c881884dee1b715a2c2bb717dde575c89a46d366afc3d64736f6c63430008090033",
  "linkReferences": {},
  "deployedLinkReferences": {}
}