{
  "_format": "hh-sol-artifact-1",
  "contractName": "Stake",
  "sourceName": "contracts/Stake.sol",
  "abi": [
    {
      "inputs": [
        {
          "internalType": "address",
          "name": "_address",
          "type": "address"
        }
      ],
      "stateMutability": "nonpayable",
      "type": "constructor"
    },
    {
      "anonymous": false,
      "inputs": [
        {
          "indexed": true,
          "internalType": "address",
          "name": "owner",
          "type": "address"
        },
        {
          "indexed": true,
          "internalType": "address",
          "name": "spender",
          "type": "address"
        },
        {
          "indexed": false,
          "internalType": "uint256",
          "name": "value",
          "type": "uint256"
        }
      ],
      "name": "Approval",
      "type": "event"
    },
    {
      "anonymous": false,
      "inputs": [
        {
          "indexed": true,
          "internalType": "address",
          "name": "from",
          "type": "address"
        },
        {
          "indexed": true,
          "internalType": "address",
          "name": "to",
          "type": "address"
        },
        {
          "indexed": false,
          "internalType": "uint256",
          "name": "value",
          "type": "uint256"
        }
      ],
      "name": "Transfer",
      "type": "event"
    },
    {
      "inputs": [
        {
          "internalType": "address",
          "name": "owner",
          "type": "address"
        },
        {
          "internalType": "address",
          "name": "spender",
          "type": "address"
        }
      ],
      "name": "allowance",
      "outputs": [
        {
          "internalType": "uint256",
          "name": "",
          "type": "uint256"
        }
      ],
      "stateMutability": "view",
      "type": "function"
    },
    {
      "inputs": [
        {
          "internalType": "address",
          "name": "spender",
          "type": "address"
        },
        {
          "internalType": "uint256",
          "name": "amount",
          "type": "uint256"
        }
      ],
      "name": "approve",
      "outputs": [
        {
          "internalType": "bool",
          "name": "",
          "type": "bool"
        }
      ],
      "stateMutability": "nonpayable",
      "type": "function"
    },
    {
      "inputs": [
        {
          "internalType": "address",
          "name": "account",
          "type": "address"
        }
      ],
      "name": "balanceOf",
      "outputs": [
        {
          "internalType": "uint256",
          "name": "",
          "type": "uint256"
        }
      ],
      "stateMutability": "view",
      "type": "function"
    },
    {
      "inputs": [
        {
          "internalType": "uint256",
          "name": "_deposit",
          "type": "uint256"
        }
      ],
      "name": "calculateProfit",
      "outputs": [
        {
          "internalType": "uint256",
          "name": "",
          "type": "uint256"
        }
      ],
      "stateMutability": "pure",
      "type": "function"
    },
    {
      "inputs": [],
      "name": "decimals",
      "outputs": [
        {
          "internalType": "uint8",
          "name": "",
          "type": "uint8"
        }
      ],
      "stateMutability": "view",
      "type": "function"
    },
    {
      "inputs": [
        {
          "internalType": "address",
          "name": "spender",
          "type": "address"
        },
        {
          "internalType": "uint256",
          "name": "subtractedValue",
          "type": "uint256"
        }
      ],
      "name": "decreaseAllowance",
      "outputs": [
        {
          "internalType": "bool",
          "name": "",
          "type": "bool"
        }
      ],
      "stateMutability": "nonpayable",
      "type": "function"
    },
    {
      "inputs": [
        {
          "internalType": "uint256",
          "name": "_deposit",
          "type": "uint256"
        }
      ],
      "name": "depositStake",
      "outputs": [],
      "stateMutability": "payable",
      "type": "function"
    },
    {
      "inputs": [
        {
          "internalType": "address",
          "name": "spender",
          "type": "address"
        },
        {
          "internalType": "uint256",
          "name": "addedValue",
          "type": "uint256"
        }
      ],
      "name": "increaseAllowance",
      "outputs": [
        {
          "internalType": "bool",
          "name": "",
          "type": "bool"
        }
      ],
      "stateMutability": "nonpayable",
      "type": "function"
    },
    {
      "inputs": [],
      "name": "name",
      "outputs": [
        {
          "internalType": "string",
          "name": "",
          "type": "string"
        }
      ],
      "stateMutability": "view",
      "type": "function"
    },
    {
      "inputs": [
        {
          "internalType": "address",
          "name": "",
          "type": "address"
        }
      ],
      "name": "staker_data",
      "outputs": [
        {
          "internalType": "uint256",
          "name": "deposit",
          "type": "uint256"
        },
        {
          "internalType": "uint256",
          "name": "withdraw",
          "type": "uint256"
        },
        {
          "internalType": "uint256",
          "name": "timeStamp",
          "type": "uint256"
        }
      ],
      "stateMutability": "view",
      "type": "function"
    },
    {
      "inputs": [
        {
          "internalType": "address",
          "name": "",
          "type": "address"
        }
      ],
      "name": "staker_status",
      "outputs": [
        {
          "internalType": "bool",
          "name": "",
          "type": "bool"
        }
      ],
      "stateMutability": "view",
      "type": "function"
    },
    {
      "inputs": [],
      "name": "symbol",
      "outputs": [
        {
          "internalType": "string",
          "name": "",
          "type": "string"
        }
      ],
      "stateMutability": "view",
      "type": "function"
    },
    {
      "inputs": [],
      "name": "totalSupply",
      "outputs": [
        {
          "internalType": "uint256",
          "name": "",
          "type": "uint256"
        }
      ],
      "stateMutability": "view",
      "type": "function"
    },
    {
      "inputs": [
        {
          "internalType": "address",
          "name": "to",
          "type": "address"
        },
        {
          "internalType": "uint256",
          "name": "amount",
          "type": "uint256"
        }
      ],
      "name": "transfer",
      "outputs": [
        {
          "internalType": "bool",
          "name": "",
          "type": "bool"
        }
      ],
      "stateMutability": "nonpayable",
      "type": "function"
    },
    {
      "inputs": [
        {
          "internalType": "address",
          "name": "from",
          "type": "address"
        },
        {
          "internalType": "address",
          "name": "to",
          "type": "address"
        },
        {
          "internalType": "uint256",
          "name": "amount",
          "type": "uint256"
        }
      ],
      "name": "transferFrom",
      "outputs": [
        {
          "internalType": "bool",
          "name": "",
          "type": "bool"
        }
      ],
      "stateMutability": "nonpayable",
      "type": "function"
    },
    {
      "inputs": [
        {
          "internalType": "uint256",
          "name": "_deposit",
          "type": "uint256"
        }
      ],
      "name": "withdrawStake",
      "outputs": [],
      "stateMutability": "payable",
      "type": "function"
    }
  ],
  "bytecode": "0x60806040523480156200001157600080fd5b506040516200297a3803806200297a83398181016040528101906200003791906200046f565b6040518060400160405280600781526020017f4d79546f6b656e000000000000000000000000000000000000000000000000008152506040518060400160405280600381526020017f4d544b00000000000000000000000000000000000000000000000000000000008152508160039080519060200190620000bb92919062000355565b508060049080519060200190620000d492919062000355565b5050506200011933620000ec620001d460201b60201c565b60ff16600a620000fd91906200062e565b620f42406200010d91906200067f565b620001dd60201b60201c565b600073ffffffffffffffffffffffffffffffffffffffff168173ffffffffffffffffffffffffffffffffffffffff1614156200018c576040517f08c379a0000000000000000000000000000000000000000000000000000000008152600401620001839062000741565b60405180910390fd5b80600560006101000a81548173ffffffffffffffffffffffffffffffffffffffff021916908373ffffffffffffffffffffffffffffffffffffffff16021790555050620008c5565b60006012905090565b600073ffffffffffffffffffffffffffffffffffffffff168273ffffffffffffffffffffffffffffffffffffffff16141562000250576040517f08c379a00000000000000000000000000000000000000000000000000000000081526004016200024790620007b3565b60405180910390fd5b62000264600083836200034b60201b60201c565b8060026000828254620002789190620007d5565b92505081905550806000808473ffffffffffffffffffffffffffffffffffffffff1673ffffffffffffffffffffffffffffffffffffffff168152602001908152602001600020600082825401925050819055508173ffffffffffffffffffffffffffffffffffffffff16600073ffffffffffffffffffffffffffffffffffffffff167fddf252ad1be2c89b69c2b068fc378daa952ba7f163c4a11628f55a4df523b3ef836040516200032b919062000843565b60405180910390a362000347600083836200035060201b60201c565b5050565b505050565b505050565b82805462000363906200088f565b90600052602060002090601f016020900481019282620003875760008555620003d3565b82601f10620003a257805160ff1916838001178555620003d3565b82800160010185558215620003d3579182015b82811115620003d2578251825591602001919060010190620003b5565b5b509050620003e29190620003e6565b5090565b5b8082111562000401576000816000905550600101620003e7565b5090565b600080fd5b600073ffffffffffffffffffffffffffffffffffffffff82169050919050565b600062000437826200040a565b9050919050565b62000449816200042a565b81146200045557600080fd5b50565b60008151905062000469816200043e565b92915050565b60006020828403121562000488576200048762000405565b5b6000620004988482850162000458565b91505092915050565b7f4e487b7100000000000000000000000000000000000000000000000000000000600052601160045260246000fd5b60008160011c9050919050565b6000808291508390505b60018511156200052f57808604811115620005075762000506620004a1565b5b6001851615620005175780820291505b80810290506200052785620004d0565b9450620004e7565b94509492505050565b6000826200054a57600190506200061d565b816200055a57600090506200061d565b81600181146200057357600281146200057e57620005b4565b60019150506200061d565b60ff841115620005935762000592620004a1565b5b8360020a915084821115620005ad57620005ac620004a1565b5b506200061d565b5060208310610133831016604e8410600b8410161715620005ee5782820a905083811115620005e857620005e7620004a1565b5b6200061d565b620005fd8484846001620004dd565b92509050818404811115620006175762000616620004a1565b5b81810290505b9392505050565b6000819050919050565b60006200063b8262000624565b9150620006488362000624565b9250620006777fffffffffffffffffffffffffffffffffffffffffffffffffffffffffffffffff848462000538565b905092915050565b60006200068c8262000624565b9150620006998362000624565b9250817fffffffffffffffffffffffffffffffffffffffffffffffffffffffffffffffff0483118215151615620006d557620006d4620004a1565b5b828202905092915050565b600082825260208201905092915050565b7f69742063616e2774206265207a65726f20616464726573730000000000000000600082015250565b600062000729601883620006e0565b91506200073682620006f1565b602082019050919050565b600060208201905081810360008301526200075c816200071a565b9050919050565b7f45524332303a206d696e7420746f20746865207a65726f206164647265737300600082015250565b60006200079b601f83620006e0565b9150620007a88262000763565b602082019050919050565b60006020820190508181036000830152620007ce816200078c565b9050919050565b6000620007e28262000624565b9150620007ef8362000624565b9250827fffffffffffffffffffffffffffffffffffffffffffffffffffffffffffffffff03821115620008275762000826620004a1565b5b828201905092915050565b6200083d8162000624565b82525050565b60006020820190506200085a600083018462000832565b92915050565b7f4e487b7100000000000000000000000000000000000000000000000000000000600052602260045260246000fd5b60006002820490506001821680620008a857607f821691505b60208210811415620008bf57620008be62000860565b5b50919050565b6120a580620008d56000396000f3fe6080604052600436106100f35760003560e01c806366c6d8bc1161008a578063a9059cbb11610059578063a9059cbb1461036d578063cb82cc8f146103aa578063cff538c4146103c6578063dd62ed3e14610403576100f3565b806366c6d8bc1461028957806370a08231146102c857806395d89b4114610305578063a457c2d714610330576100f3565b806325d5971f116100c657806325d5971f146101c8578063313ce567146101e4578063395093511461020f5780635b21ba6f1461024c576100f3565b806306fdde03146100f8578063095ea7b31461012357806318160ddd1461016057806323b872dd1461018b575b600080fd5b34801561010457600080fd5b5061010d610440565b60405161011a9190611422565b60405180910390f35b34801561012f57600080fd5b5061014a600480360381019061014591906114dd565b6104d2565b6040516101579190611538565b60405180910390f35b34801561016c57600080fd5b506101756104f5565b6040516101829190611562565b60405180910390f35b34801561019757600080fd5b506101b260048036038101906101ad919061157d565b6104ff565b6040516101bf9190611538565b60405180910390f35b6101e260048036038101906101dd91906115d0565b61052e565b005b3480156101f057600080fd5b506101f96108a9565b6040516102069190611619565b60405180910390f35b34801561021b57600080fd5b50610236600480360381019061023191906114dd565b6108b2565b6040516102439190611538565b60405180910390f35b34801561025857600080fd5b50610273600480360381019061026e91906115d0565b6108e9565b6040516102809190611562565b60405180910390f35b34801561029557600080fd5b506102b060048036038101906102ab9190611634565b61090b565b6040516102bf93929190611661565b60405180910390f35b3480156102d457600080fd5b506102ef60048036038101906102ea9190611634565b610935565b6040516102fc9190611562565b60405180910390f35b34801561031157600080fd5b5061031a61097d565b6040516103279190611422565b60405180910390f35b34801561033c57600080fd5b50610357600480360381019061035291906114dd565b610a0f565b6040516103649190611538565b60405180910390f35b34801561037957600080fd5b50610394600480360381019061038f91906114dd565b610a86565b6040516103a19190611538565b60405180910390f35b6103c460048036038101906103bf91906115d0565b610aa9565b005b3480156103d257600080fd5b506103ed60048036038101906103e89190611634565b610e01565b6040516103fa9190611538565b60405180910390f35b34801561040f57600080fd5b5061042a60048036038101906104259190611698565b610e21565b6040516104379190611562565b60405180910390f35b60606003805461044f90611707565b80601f016020809104026020016040519081016040528092919081815260200182805461047b90611707565b80156104c85780601f1061049d576101008083540402835291602001916104c8565b820191906000526020600020905b8154815290600101906020018083116104ab57829003601f168201915b5050505050905090565b6000806104dd610ea8565b90506104ea818585610eb0565b600191505092915050565b6000600254905090565b60008061050a610ea8565b905061051785828561107b565b610522858585611107565b60019150509392505050565b60011515600660003373ffffffffffffffffffffffffffffffffffffffff1673ffffffffffffffffffffffffffffffffffffffff16815260200190815260200160002060009054906101000a900460ff161515146105c1576040517f08c379a00000000000000000000000000000000000000000000000000000000081526004016105b890611785565b60405180910390fd5b42600760003373ffffffffffffffffffffffffffffffffffffffff1673ffffffffffffffffffffffffffffffffffffffff1681526020019081526020016000206002015410610645576040517f08c379a000000000000000000000000000000000000000000000000000000000815260040161063c906117f1565b60405180910390fd5b60008111610688576040517f08c379a000000000000000000000000000000000000000000000000000000000815260040161067f9061185d565b60405180910390fd5b80600760003373ffffffffffffffffffffffffffffffffffffffff1673ffffffffffffffffffffffffffffffffffffffff16815260200190815260200160002060000154101561070d576040517f08c379a0000000000000000000000000000000000000000000000000000000008152600401610704906118ef565b60405180910390fd5b600560009054906101000a900473ffffffffffffffffffffffffffffffffffffffff1673ffffffffffffffffffffffffffffffffffffffff1663a9059cbb33610755846108e9565b84610760919061193e565b6040518363ffffffff1660e01b815260040161077d9291906119a3565b602060405180830381600087803b15801561079757600080fd5b505af11580156107ab573d6000803e3d6000fd5b505050506040513d601f19601f820116820180604052508101906107cf91906119f8565b50604051806060016040528060008152602001600081526020016000815250600760003373ffffffffffffffffffffffffffffffffffffffff1673ffffffffffffffffffffffffffffffffffffffff1681526020019081526020016000206000820151816000015560208201518160010155604082015181600201559050506000600660003373ffffffffffffffffffffffffffffffffffffffff1673ffffffffffffffffffffffffffffffffffffffff16815260200190815260200160002060006101000a81548160ff02191690831515021790555050565b60006012905090565b6000806108bd610ea8565b90506108de8185856108cf8589610e21565b6108d9919061193e565b610eb0565b600191505092915050565b600060646005836108fa9190611a25565b6109049190611aae565b9050919050565b60076020528060005260406000206000915090508060000154908060010154908060020154905083565b60008060008373ffffffffffffffffffffffffffffffffffffffff1673ffffffffffffffffffffffffffffffffffffffff168152602001908152602001600020549050919050565b60606004805461098c90611707565b80601f01602080910402602001604051908101604052809291908181526020018280546109b890611707565b8015610a055780601f106109da57610100808354040283529160200191610a05565b820191906000526020600020905b8154815290600101906020018083116109e857829003601f168201915b5050505050905090565b600080610a1a610ea8565b90506000610a288286610e21565b905083811015610a6d576040517f08c379a0000000000000000000000000000000000000000000000000000000008152600401610a6490611b51565b60405180910390fd5b610a7a8286868403610eb0565b60019250505092915050565b600080610a91610ea8565b9050610a9e818585611107565b600191505092915050565b60001515600660003373ffffffffffffffffffffffffffffffffffffffff1673ffffffffffffffffffffffffffffffffffffffff16815260200190815260200160002060009054906101000a900460ff16151514610b3c576040517f08c379a0000000000000000000000000000000000000000000000000000000008152600401610b3390611be3565b60405180910390fd5b60008111610b7f576040517f08c379a0000000000000000000000000000000000000000000000000000000008152600401610b769061185d565b60405180910390fd5b80600560009054906101000a900473ffffffffffffffffffffffffffffffffffffffff1673ffffffffffffffffffffffffffffffffffffffff166370a08231336040518263ffffffff1660e01b8152600401610bdb9190611c03565b60206040518083038186803b158015610bf357600080fd5b505afa158015610c07573d6000803e3d6000fd5b505050506040513d601f19601f82011682018060405250810190610c2b9190611c33565b1015610c6c576040517f08c379a0000000000000000000000000000000000000000000000000000000008152600401610c6390611cd2565b60405180910390fd5b600560009054906101000a900473ffffffffffffffffffffffffffffffffffffffff1673ffffffffffffffffffffffffffffffffffffffff166323b872dd3330846040518463ffffffff1660e01b8152600401610ccb93929190611cf2565b602060405180830381600087803b158015610ce557600080fd5b505af1158015610cf9573d6000803e3d6000fd5b505050506040513d601f19601f82011682018060405250810190610d1d91906119f8565b50604051806060016040528082815260200160008152602001603c42610d43919061193e565b815250600760003373ffffffffffffffffffffffffffffffffffffffff1673ffffffffffffffffffffffffffffffffffffffff1681526020019081526020016000206000820151816000015560208201518160010155604082015181600201559050506001600660003373ffffffffffffffffffffffffffffffffffffffff1673ffffffffffffffffffffffffffffffffffffffff16815260200190815260200160002060006101000a81548160ff02191690831515021790555050565b60066020528060005260406000206000915054906101000a900460ff1681565b6000600160008473ffffffffffffffffffffffffffffffffffffffff1673ffffffffffffffffffffffffffffffffffffffff16815260200190815260200160002060008373ffffffffffffffffffffffffffffffffffffffff1673ffffffffffffffffffffffffffffffffffffffff16815260200190815260200160002054905092915050565b600033905090565b600073ffffffffffffffffffffffffffffffffffffffff168373ffffffffffffffffffffffffffffffffffffffff161415610f20576040517f08c379a0000000000000000000000000000000000000000000000000000000008152600401610f1790611d9b565b60405180910390fd5b600073ffffffffffffffffffffffffffffffffffffffff168273ffffffffffffffffffffffffffffffffffffffff161415610f90576040517f08c379a0000000000000000000000000000000000000000000000000000000008152600401610f8790611e2d565b60405180910390fd5b80600160008573ffffffffffffffffffffffffffffffffffffffff1673ffffffffffffffffffffffffffffffffffffffff16815260200190815260200160002060008473ffffffffffffffffffffffffffffffffffffffff1673ffffffffffffffffffffffffffffffffffffffff168152602001908152602001600020819055508173ffffffffffffffffffffffffffffffffffffffff168373ffffffffffffffffffffffffffffffffffffffff167f8c5be1e5ebec7d5bd14f71427d1e84f3dd0314c0f7b2291e5b200ac8c7c3b9258360405161106e9190611562565b60405180910390a3505050565b60006110878484610e21565b90507fffffffffffffffffffffffffffffffffffffffffffffffffffffffffffffffff811461110157818110156110f3576040517f08c379a00000000000000000000000000000000000000000000000000000000081526004016110ea90611e99565b60405180910390fd5b6111008484848403610eb0565b5b50505050565b600073ffffffffffffffffffffffffffffffffffffffff168373ffffffffffffffffffffffffffffffffffffffff161415611177576040517f08c379a000000000000000000000000000000000000000000000000000000000815260040161116e90611f2b565b60405180910390fd5b600073ffffffffffffffffffffffffffffffffffffffff168273ffffffffffffffffffffffffffffffffffffffff1614156111e7576040517f08c379a00000000000000000000000000000000000000000000000000000000081526004016111de90611fbd565b60405180910390fd5b6111f283838361137f565b60008060008573ffffffffffffffffffffffffffffffffffffffff1673ffffffffffffffffffffffffffffffffffffffff16815260200190815260200160002054905081811015611278576040517f08c379a000000000000000000000000000000000000000000000000000000000815260040161126f9061204f565b60405180910390fd5b8181036000808673ffffffffffffffffffffffffffffffffffffffff1673ffffffffffffffffffffffffffffffffffffffff16815260200190815260200160002081905550816000808573ffffffffffffffffffffffffffffffffffffffff1673ffffffffffffffffffffffffffffffffffffffff168152602001908152602001600020600082825401925050819055508273ffffffffffffffffffffffffffffffffffffffff168473ffffffffffffffffffffffffffffffffffffffff167fddf252ad1be2c89b69c2b068fc378daa952ba7f163c4a11628f55a4df523b3ef846040516113669190611562565b60405180910390a3611379848484611384565b50505050565b505050565b505050565b600081519050919050565b600082825260208201905092915050565b60005b838110156113c35780820151818401526020810190506113a8565b838111156113d2576000848401525b50505050565b6000601f19601f8301169050919050565b60006113f482611389565b6113fe8185611394565b935061140e8185602086016113a5565b611417816113d8565b840191505092915050565b6000602082019050818103600083015261143c81846113e9565b905092915050565b600080fd5b600073ffffffffffffffffffffffffffffffffffffffff82169050919050565b600061147482611449565b9050919050565b61148481611469565b811461148f57600080fd5b50565b6000813590506114a18161147b565b92915050565b6000819050919050565b6114ba816114a7565b81146114c557600080fd5b50565b6000813590506114d7816114b1565b92915050565b600080604083850312156114f4576114f3611444565b5b600061150285828601611492565b9250506020611513858286016114c8565b9150509250929050565b60008115159050919050565b6115328161151d565b82525050565b600060208201905061154d6000830184611529565b92915050565b61155c816114a7565b82525050565b60006020820190506115776000830184611553565b92915050565b60008060006060848603121561159657611595611444565b5b60006115a486828701611492565b93505060206115b586828701611492565b92505060406115c6868287016114c8565b9150509250925092565b6000602082840312156115e6576115e5611444565b5b60006115f4848285016114c8565b91505092915050565b600060ff82169050919050565b611613816115fd565b82525050565b600060208201905061162e600083018461160a565b92915050565b60006020828403121561164a57611649611444565b5b600061165884828501611492565b91505092915050565b60006060820190506116766000830186611553565b6116836020830185611553565b6116906040830184611553565b949350505050565b600080604083850312156116af576116ae611444565b5b60006116bd85828601611492565b92505060206116ce85828601611492565b9150509250929050565b7f4e487b7100000000000000000000000000000000000000000000000000000000600052602260045260246000fd5b6000600282049050600182168061171f57607f821691505b60208210811415611733576117326116d8565b5b50919050565b7f7374616b696e672069736e277420696e207468652070726f6365737300000000600082015250565b600061176f601c83611394565b915061177a82611739565b602082019050919050565b6000602082019050818103600083015261179e81611762565b9050919050565b7f484f444c20706572696f64206973207374696c6c20676f696e206f6e00000000600082015250565b60006117db601c83611394565b91506117e6826117a5565b602082019050919050565b6000602082019050818103600083015261180a816117ce565b9050919050565b7f5374616b65206d7573742062652067726561746572207468616e203000000000600082015250565b6000611847601c83611394565b915061185282611811565b602082019050919050565b600060208201905081810360008301526118768161183a565b9050919050565b7f496e73756666696369656e742066756e647320746f207769746864726177207360008201527f74616b6500000000000000000000000000000000000000000000000000000000602082015250565b60006118d9602483611394565b91506118e48261187d565b604082019050919050565b60006020820190508181036000830152611908816118cc565b9050919050565b7f4e487b7100000000000000000000000000000000000000000000000000000000600052601160045260246000fd5b6000611949826114a7565b9150611954836114a7565b9250827fffffffffffffffffffffffffffffffffffffffffffffffffffffffffffffffff038211156119895761198861190f565b5b828201905092915050565b61199d81611469565b82525050565b60006040820190506119b86000830185611994565b6119c56020830184611553565b9392505050565b6119d58161151d565b81146119e057600080fd5b50565b6000815190506119f2816119cc565b92915050565b600060208284031215611a0e57611a0d611444565b5b6000611a1c848285016119e3565b91505092915050565b6000611a30826114a7565b9150611a3b836114a7565b9250817fffffffffffffffffffffffffffffffffffffffffffffffffffffffffffffffff0483118215151615611a7457611a7361190f565b5b828202905092915050565b7f4e487b7100000000000000000000000000000000000000000000000000000000600052601260045260246000fd5b6000611ab9826114a7565b9150611ac4836114a7565b925082611ad457611ad3611a7f565b5b828204905092915050565b7f45524332303a2064656372656173656420616c6c6f77616e63652062656c6f7760008201527f207a65726f000000000000000000000000000000000000000000000000000000602082015250565b6000611b3b602583611394565b9150611b4682611adf565b604082019050919050565b60006020820190508181036000830152611b6a81611b2e565b9050919050565b7f7374616b696e6720697320616c726561647920696e207468652070726f63657360008201527f7300000000000000000000000000000000000000000000000000000000000000602082015250565b6000611bcd602183611394565b9150611bd882611b71565b604082019050919050565b60006020820190508181036000830152611bfc81611bc0565b9050919050565b6000602082019050611c186000830184611994565b92915050565b600081519050611c2d816114b1565b92915050565b600060208284031215611c4957611c48611444565b5b6000611c5784828501611c1e565b91505092915050565b7f496e73756666696369656e742066756e647320746f206465706f73697420737460008201527f616b650000000000000000000000000000000000000000000000000000000000602082015250565b6000611cbc602383611394565b9150611cc782611c60565b604082019050919050565b60006020820190508181036000830152611ceb81611caf565b9050919050565b6000606082019050611d076000830186611994565b611d146020830185611994565b611d216040830184611553565b949350505050565b7f45524332303a20617070726f76652066726f6d20746865207a65726f2061646460008201527f7265737300000000000000000000000000000000000000000000000000000000602082015250565b6000611d85602483611394565b9150611d9082611d29565b604082019050919050565b60006020820190508181036000830152611db481611d78565b9050919050565b7f45524332303a20617070726f766520746f20746865207a65726f20616464726560008201527f7373000000000000000000000000000000000000000000000000000000000000602082015250565b6000611e17602283611394565b9150611e2282611dbb565b604082019050919050565b60006020820190508181036000830152611e4681611e0a565b9050919050565b7f45524332303a20696e73756666696369656e7420616c6c6f77616e6365000000600082015250565b6000611e83601d83611394565b9150611e8e82611e4d565b602082019050919050565b60006020820190508181036000830152611eb281611e76565b9050919050565b7f45524332303a207472616e736665722066726f6d20746865207a65726f20616460008201527f6472657373000000000000000000000000000000000000000000000000000000602082015250565b6000611f15602583611394565b9150611f2082611eb9565b604082019050919050565b60006020820190508181036000830152611f4481611f08565b9050919050565b7f45524332303a207472616e7366657220746f20746865207a65726f206164647260008201527f6573730000000000000000000000000000000000000000000000000000000000602082015250565b6000611fa7602383611394565b9150611fb282611f4b565b604082019050919050565b60006020820190508181036000830152611fd681611f9a565b9050919050565b7f45524332303a207472616e7366657220616d6f756e742065786365656473206260008201527f616c616e63650000000000000000000000000000000000000000000000000000602082015250565b6000612039602683611394565b915061204482611fdd565b604082019050919050565b600060208201905081810360008301526120688161202c565b905091905056fea26469706673582212208756de85ad84cd67014e4f48512c6c203991f4b07618880880a7e3640d46ed6f64736f6c63430008090033",
  "linkReferences": {},
  "deployedLinkReferences": {}
}